:100000000C9494000C94BC000C94BC000C94BC00A8
:100010000C94BC000C94BC000C94BC000C94BC0070
:100020000C94BC000C94BC000C94BC000C94BC0060
:100030000C94BC000C94BC000C94BC000C94BC0050
:100040000C941C030C94BC000C948C030C9466035D
:100050000C94BC000C94BC000C94BC000C94BC0030
:100060000C94BC000C94BC0007634236B79BD8A725
:100070001A39685618AEBAAB558C1D3CB7CC5763CD
:10008000BD6DEDFD753EF6177231BF000000803F7B
:1000900008000000BE922449123EABAAAA2ABECD97
:1000A000CCCC4C3E00000080BEABAAAAAA3E000009
:1000B0000000BF000000803F000000000008417801
:1000C000D3BB4387D1133D190E3CC3BD4282AD2B38
:1000D0003E68EC8276BED98FE1A93E4C80EFFFBE30
:1000E00001C4FF7F3F000000000000000000250069
:1000F00028002B0000000000240027002A00040430
:1001000004040404040402020202020203030303BF
:10011000030301020408102040800102040810209B
:10012000010204081020BE0311241FBECFEFD8E047
:10013000DEBFCDBF11E0A0E0B1E0E0EFF1E102C031
:1001400005900D92AC31B107D9F721E0ACE1B1E0F7
:1001500001C01D92A03DB207E1F710E0C4E9D0E074
:1001600004C02197FE010E94F008C339D107C9F7E6
:100170000E9412040C94F6080C940000CF93DF93B5
:1001800090E0FC01EE5EFE4F249182509F4FFC01F7
:1001900084918823C1F090E0880F991FFC01EC50F6
:1001A000FF4FC591D491FC01E651FF4FA591B49149
:1001B0009FB7F8948881E22FE0958E2388838C91F5
:1001C000E823EC939FBFDF91CF910895AF92BF9248
:1001D000CF92DF92EF92FF920F931F93CF93DF9313
:1001E0006C017B018B01040F151FEB015E01AE1842
:1001F000BF08C017D10759F06991D601ED91FC9164
:100200000190F081E02DC6010995892B79F7C50190
:10021000DF91CF911F910F91FF90EF90DF90CF90E2
:10022000BF90AF900895FC01538D448D252F30E091
:10023000842F90E0821B930B541710F0CF960895F3
:1002400001970895FC01918D828D981761F0A28D20
:10025000AE0FBF2FB11D5D968C91928D9F5F9F73E6
:10026000928F90E008958FEF9FEF0895FC01918D9C
:10027000828D981731F0828DE80FF11D858D90E009
:1002800008958FEF9FEF0895FC01918D228D892FA6
:1002900090E0805C9F4F821B91098F73992708958E
:1002A00087E291E00E94440121E0892B09F420E0DB
:1002B000822F089580E090E0892B29F00E94500160
:1002C00081110C9400000895FC01A48DA80FB92F92
:1002D000B11DA35ABF4F2C91848D90E001968F736E
:1002E0009927848FA689B7892C93A089B1898C918D
:1002F000837080648C93938D848D981306C00288DC
:10030000F389E02D80818F7D80830895EF92FF92A5
:100310000F931F93CF93DF93EC0181E0888F9B8D28
:100320008C8D98131AC0E889F989808185FF15C0E2
:100330009FB7F894EE89FF896083E889F989808105
:100340008370806480839FBF81E090E0DF91CF91D4
:100350001F910F91FF90EF900895F62E0B8D10E0F6
:100360000F5F1F4F0F731127E02E8C8D8E110CC065
:100370000FB607FCFACFE889F989808185FFF5CFB0
:10038000CE010E946401F1CFEB8DEC0FFD2FF11D2A
:10039000E35AFF4FF0829FB7F8940B8FEA89FB89ED
:1003A00080818062CFCFCF93DF93EC01888D88234B
:1003B000B9F0AA89BB89E889F9898C9185FD03C0C8
:1003C000808186FD0DC00FB607FCF7CF8C9185FFAD
:1003D000F2CF808185FFEDCFCE010E946401E9CF8D
:1003E000DF91CF910895CF92DF92EF92FF92CF935A
:1003F000DF93CDB7DEB7E2970FB6F894DEBF0FBE3E
:10040000CDBFDC01AE014D5C5F4FFE0131969C918A
:100410009E3008F09E502091020180E4289F9001B8
:1004200011249770922B90937C0090917A009064A5
:1004300090937A0080917A0086FDFCCF80917800BD
:1004400090917900819391934E175F0701F728E10E
:1004500030E0FE01319650E040E081E04217530762
:1004600084F4E080F180C280D380CE14DF042CF4C9
:10047000D182C082F382E28280E04F5F5F4F32968A
:10048000EDCF811103C02150310919F712968D91DA
:100490009D910D90BC91A02D883324E09207A10579
:1004A000B10591F5A98DBA8D28E833E10E94E908DC
:1004B0002FEF33E040E050E00E94D604CA01B901BA
:1004C0000E94420620E030E04AE754E40E9498058A
:1004D0002EE03DE24AE95FEB0E94640722EF32ED35
:1004E0004DED51E40E94F7060E940A06CB01E29608
:1004F0000FB6F894DEBF0FBECDBFDF91CF91FF9056
:10050000EF90DF90CF900895863B2EE49207A105EF
:10051000B10509F5A98DBA8D28E833E10E94E908F3
:100520002FEF33E040E050E00E94D604CA01B90149
:100530000E94420620E030E04AE754E40E94980519
:1005400021EE3AE744E95FEB0E9464072AEF3EE7B9
:1005500041E752E4C7CF8E3A21E09207A105B105E9
:1005600009F5A98DBA8D28E833E10E94E9082FEF3B
:1005700033E040E050E00E94D604CA01B9010E9475
:10058000420620E030E04AE754E40E9498052BE858
:100590003CE647E85FEB0E9464072EEA37E441E45B
:1005A00051E4A0CF84399848A140B10509F09ECF0D
:1005B000A98DBA8D28E833E10E94E9082FEF33E0D6
:1005C00040E050E00E94D604CA01B9010E944206F0
:1005D0006B017C0120E030E04FEA54E40E94930577
:1005E00087FD27C020E030E44EE455E4C701B601A2
:1005F0000E94F2061816ECF020E030EA4CE854E4D1
:10060000C701B6010E94260520E030E04AE754E425
:100610000E94980520E030E849E053E40E949805E4
:100620009B01AC0160E070E080E89FE30E949805C8
:100630005BCF70E060E05ACF1F920F920FB60F921F
:1006400011242F933F938F939F93AF93BF938091E8
:10065000230190912401A0912501B09126013091B0
:10066000220123E0230F2D3758F50196A11DB11D5E
:10067000209322018093230190932401A0932501CC
:10068000B093260180911E0190911F01A09120013D
:10069000B09121010196A11DB11D80931E0190937F
:1006A0001F01A0932001B0932101BF91AF919F91B1
:1006B0008F913F912F910F900FBE0F901F90189523
:1006C00026E8230F0296A11DB11DD2CF1F920F92D3
:1006D0000FB60F9211242F933F934F935F936F9315
:1006E0007F938F939F93AF93BF93EF93FF9387E293
:1006F00091E00E946401FF91EF91BF91AF919F91B2
:100700008F917F916F915F914F913F912F910F90BA
:100710000FBE0F901F9018951F920F920FB60F9259
:1007200011242F938F939F93EF93FF93E0913701C1
:10073000F09138018081E0913D01F0913E0182FD10
:100740001BC09081809140018F5F8F732091410188
:10075000821741F0E0914001F0E0E95DFE4F958F96
:1007600080934001FF91EF919F918F912F910F9076
:100770000FBE0F901F9018958081F4CFCF92DF921B
:10078000EF92FF92E7E2F1E01382128288EE93E0AB
:10079000A0E0B0E084839583A683B78387E091E0EF
:1007A0009183808385EC90E09587848784EC90E04A
:1007B0009787868780EC90E0918B808B81EC90E02E
:1007C000938B828B82EC90E0958B848B86EC90E00F
:1007D000978B868B118E128E138E148EEAECF1E0BD
:1007E0001182108288E3C82E84E0D82EE12CF12CEF
:1007F000C282D382E482F58280E00E94BE0081E062
:1008000080930201E4ECF1E081E090E09183808349
:10081000C282D382E482F582FF90EF90DF90CF9086
:100820000C94BE00789484B5826084BD84B58160E8
:1008300084BD85B5826085BD85B5816085BD8091AB
:100840006E00816080936E00109281008091810023
:10085000826080938100809181008160809381001B
:10086000809180008160809380008091B1008460DD
:100870008093B1008091B00081608093B00080913E
:100880007A00846080937A0080917A0082608093FD
:100890007A0080917A00816080937A0080917A005A
:1008A000806880937A001092C100E0913701F09146
:1008B000380182E08083E0913301F09134011082AD
:1008C000E0913501F091360180E1808310923F0183
:1008D000E0913B01F0913C0186E08083E091390199
:1008E000F0913A01808180618083E0913901F0913B
:1008F0003A01808188608083E0913901F0913A016A
:10090000808180688083E0913901F0913A01808193
:100910008F7D808380E0E82E80E0F82E11E08AEC65
:1009200091E00E94F301EC0190930101809300019A
:1009300084EC91E00E94F30120911D01211108C077
:10094000CF30D1052CF48031910514F010931D01A6
:1009500020911D01222339F160972CF10F971CF58E
:1009600080911C01811114C010931C0143E050E0E0
:1009700065E171E087E291E00E94E60042E050E02C
:1009800069E171E087E291E00E94E60010921D01AA
:10099000E114F10421F20E945001882309F4BFCF31
:1009A0000E940000BCCF10921C01F2CF052E97FBD5
:1009B0001EF400940E94ED0457FD07D00E94F50438
:1009C00007FC03D04EF40C94ED04509540953095FF
:1009D00021953F4F4F4F5F4F0895909580957095AB
:1009E00061957F4F8F4F9F4F0895A1E21A2EAA1B4A
:1009F000BB1BFD010DC0AA1FBB1FEE1FFF1FA217CF
:100A0000B307E407F50720F0A21BB30BE40BF50BCB
:100A1000661F771F881F991F1A9469F76095709554
:100A2000809590959B01AC01BD01CF010895A29FD7
:100A3000B001B39FC001A39F700D811D1124911DB2
:100A4000B29F700D811D1124911D08955058BB2730
:100A5000AA270E943E050C94B8060E94AA0638F008
:100A60000E94B10620F039F49F3F19F426F40C944B
:100A7000A7060EF4E095E7FB0C94A106E92F0E946F
:100A8000C90658F3BA17620773078407950720F061
:100A900079F4A6F50C94EB060EF4E0950B2EBA2F24
:100AA000A02D0B01B90190010C01CA01A001112474
:100AB000FF27591B99F0593F50F4503E68F11A1620
:100AC000F040A22F232F342F4427585FF3CF4695B1
:100AD00037952795A795F0405395C9F77EF41F16D3
:100AE000BA0B620B730B840BBAF09150A1F0FF0F9D
:100AF000BB1F661F771F881FC2F70EC0BA0F621F89
:100B0000731F841F48F4879577956795B795F79578
:100B10009E3F08F0B0CF9395880F08F09927EE0F0D
:100B20009795879508950E947D0608F481E00895C1
:100B30000E94AC050C94B8060E94B10658F00E94C1
:100B4000AA0640F029F45F3F29F00C94A106511148
:100B50000C94EC060C94A7060E94C90668F399232E
:100B6000B1F3552391F3951B550BBB27AA276217A9
:100B70007307840738F09F5F5F4F220F331F441FB6
:100B8000AA1FA9F335D00E2E3AF0E0E832D09150EA
:100B90005040E695001CCAF72BD0FE2F29D0660FD7
:100BA000771F881FBB1F261737074807AB07B0E81A
:100BB00009F0BB0B802DBF01FF2793585F4F3AF020
:100BC0009E3F510578F00C94A1060C94EC065F3F13
:100BD000E4F3983ED4F3869577956795B795F795A6
:100BE0009F5FC9F7880F911D9695879597F908958E
:100BF000E1E0660F771F881FBB1F6217730784072A
:100C0000BA0720F0621B730B840BBA0BEE1F88F738
:100C1000E09508950E9411066894B1110C94EC06B9
:100C200008950E94D10688F09F5798F0B92F992710
:100C3000B751B0F0E1F0660F771F881F991F1AF0C7
:100C4000BA95C9F714C0B13091F00E94EB06B1E03B
:100C500008950C94EB06672F782F8827B85F39F03A
:100C6000B93FCCF3869577956795B395D9F73EF460
:100C700090958095709561957F4F8F4F9F4F089508
:100C8000E89409C097FB3EF4909580957095619526
:100C90007F4F8F4F9F4F9923A9F0F92F96E9BB27DC
:100CA0009395F695879577956795B795F111F8CF58
:100CB000FAF4BB0F11F460FF1BC06F5F7F4F8F4FC3
:100CC0009F4F16C0882311F096E911C0772321F0B9
:100CD0009EE8872F762F05C0662371F096E8862F51
:100CE00070E060E02AF09A95660F771F881FDAF7A8
:100CF000880F9695879597F90895990F0008550FD5
:100D0000AA0BE0E8FEEF16161706E807F907C0F091
:100D100012161306E407F50798F0621B730B840B99
:100D2000950B39F40A2661F0232B242B252B21F473
:100D300008950A2609F4A140A6958FEF811D811D13
:100D4000089597F99F6780E870E060E008959FEF4D
:100D500080EC089500240A94161617061806090652
:100D6000089500240A941216130614060506089521
:100D7000092E0394000C11F4882352F0BB0F40F4A9
:100D8000BF2B11F460FF04C06F5F7F4F8F4F9F4FE9
:100D9000089557FD9058440F551F59F05F3F71F06B
:100DA0004795880F97FB991F61F09F3F79F08795D2
:100DB0000895121613061406551FF2CF4695F1DF5B
:100DC00008C0161617061806991FF1CF86957105EB
:100DD000610508940895E894BB2766277727CB011F
:100DE00097F908950E947D0608F48FEF08950E94F8
:100DF0000A070C94B8060E94AA0638F00E94B106B1
:100E000020F0952311F00C94A1060C94A706112450
:100E10000C94EC060E94C90670F3959FC1F3950FE0
:100E200050E0551F629FF001729FBB27F00DB11D6E
:100E3000639FAA27F00DB11DAA1F649F6627B00DFE
:100E4000A11D661F829F2227B00DA11D621F739FE7
:100E5000B00DA11D621F839FA00D611D221F749FF5
:100E60003327A00D611D231F849F600D211D822F3C
:100E7000762F6A2F11249F5750409AF0F1F0882363
:100E80004AF0EE0FFF1FBB1F661F771F881F915090
:100E90005040A9F79E3F510580F00C94A1060C9498
:100EA000EC065F3FE4F3983ED4F38695779567951B
:100EB000B795F795E7959F5FC1F7FE2B880F911DBA
:100EC0009695879597F90895FA01EE0FFF1F3096D2
:100ED00021053105A1F16115710561F48038BFE389
:100EE0009B0749F168949038810561F08038BFEF25
:100EF0009B0741F099234AF5FF3FE10531052105A4
:100F000019F1E8940894E795D901AA2329F4AB2FA5
:100F1000BE2FF85FD0F310C0FF5F70F4A695E0F726
:100F2000F73950F019F0FF3A38F49F779F930DD0BE
:100F30000F9007FC9058089546F00C94A70660E0C7
:100F400070E080E89FE308954FE79F775F934F93AA
:100F50003F932F930E945F082F913F914F915F9194
:100F60000E94F7060C94BC0729F416F00C94A10615
:100F70000C94EB060C94A7060E94D106A8F39638B1
:100F8000A0F707F80F92E8942BE33AEA48EB5FE703
:100F90000E940D070F920F920F924DB75EB70F92FE
:100FA0000E94A708E8E6F0E00E94EE074F915F91EB
:100FB000EF91FF91E595EE1FFF1F49F0FE57E068A6
:100FC0004427EE0F441FFA95E1F74195550B0E9417
:100FD00021080F9007FE0C9415080895DF93CF9316
:100FE0001F930F93FF92EF92DF927B018C01689425
:100FF00006C0DA2EEF010E940A07FE01E894A591CF
:101000002591359145915591A6F3EF010E943E053A
:10101000FE019701A801DA9469F7DF90EF90FF9045
:101020000F911F91CF91DF9108959B01AC0160E07A
:1010300070E080E89FE30C9498050C94A1060C9452
:10104000DB080E94D106D8F39923C9F3940F511DF0
:10105000A3F39150504094F059F0882332F0660F7A
:10106000771F881F91505040C1F79E3F51052CF7C4
:10107000880F911D9695879597F908955F3FACF07D
:10108000983E9CF0BB27869577956795B79508F4B1
:10109000B1609395C1F7BB0F58F711F460FFE8CF2B
:1010A0006F5F7F4F8F4F9F4FE3CF0C94EC0616F08E
:1010B0000C94DB080C94A70668940C94A1060E947B
:1010C000D106A8F39923C1F3AEF3DF93CF931F9317
:1010D0000F93FF92C92FDD2788232AF02197660FEF
:1010E000771F881FDAF720E030E040E85FEB9FE3EE
:1010F000883920F0803E38F021968F770E942705AE
:10110000E0E9F0E004C00E942705EDEBF0E00E946A
:10111000EE078B01BE01EC01FB2E6F57710975952F
:10112000771F880B990B0E94420628E132E741E3C2
:101130005FE30E940A07AF2D9801AE01FF900F9167
:101140001F91CF91DF910E943E050C94B806FA01E1
:10115000DC01AA0FBB1F9B01AC01BF5728F422275B
:1011600033274427507820C0B75190F4AB2F002488
:10117000469537952795011CA395D2F3002071F071
:10118000220F331F441FB395DAF30ED00C942605BB
:1011900061307105A0E88A07B94630F49B01AC01C3
:1011A0006627772788279078309621F0208331832F
:1011B0004283538308959F3F31F0915020F48795E7
:1011C00077956795B795880F911D9695879597F9AF
:1011D00008950E941705B7FF0895821B930B089589
:1011E000EE0FFF1F0590F491E02D0994F894FFCFC6
:1011F000640001000000008601E6001301D30144F1
:0C1200000122013601424242000D0A00AA
:00000001FF
